:020000020000FC
:100000007AC507E60093C40000E00093C50008E04D
:100010000093C10006E00093C2000895F091C00073
:10002000F5FFFCCFE093C6000895CF93DF93EF93E5
:10003000FF93DE2FD07FD695D695D695D695D3FF54
:1000400008C0D2FF01C002C0D1FF03C0C7E3DC0F6C
:1000500001C0D063F091C000F5FFFCCFD093C60083
:10006000DE2FDF70D3FF08C0D2FF01C002C0D1FF76
:1000700003C0C7E3DC0F01C0D063F091C000F5FFFF
:10008000FCCFD093C600FF91EF91DF91CF910895FF
:10009000CF93DF93EF93FF93CD2FC695C695C6956B
:1000A000C695C695C695C695C170C063EC2F0E94D3
:1000B0000E00CD2FC695C695C695C695C695C69514
:1000C000C170C063EC2F0E940E00CD2FC695C6955F
:1000D000C695C695C695C170C063EC2F0E940E00F0
:1000E000CD2FC695C695C695C695C170C063EC2F39
:1000F0000E940E00CD2FC695C695C695C170C063EF
:10010000EC2F0E940E00CD2FC695C695C170C0631E
:10011000EC2F0E940E00CD2FC695C170C063EC2F4E
:100120000E940E00CD2FC170C063EC2F0E940E0004
:10013000FF91EF91DF91CF9108950F931F932F932C
:100140003F938F939F93AF93FF9397E280E1A0E05B
:10015000A395281B390BE0F7AA95280F391FA06338
:10016000F091C000F5FFFCCFA093C60093E088EEAD
:10017000A0E0A395281B390BE0F7AA95280F391F9B
:10018000A063F091C000F5FFFCCFA093C60090E003
:1001900084E6A0E0A395281B390BE0F7AA95280F69
:1001A000391FA063F091C000F5FFFCCFA093C600FB
:1001B00090E08AE0A0E0A395281B390BE0F7AA9510
:1001C000280F391FA063F091C000F5FFFCCFA0936A
:1001D000C600A22FA063F091C000F5FFFCCFA09352
:1001E000C6002F913F91EEE20E940E000F931F93E5
:1001F00093E088EEA0E0A395081B190BE0F7AA9501
:10020000080F191FA063F091C000F5FFFCCFA09369
:10021000C60090E084E6A0E0A395081B190BE0F768
:10022000AA95080F191FA063F091C000F5FFFCCF3D
:10023000A093C60090E08AE0A0E0A395081B190BEC
:10024000E0F7AA95080F191FA063F091C000F5FF11
:10025000FCCFA093C600A02FA063F091C000F5FFD3
:10026000FCCFA093C600FF91AF919F918F913F91DA
:100270002F911F910F9108954F935F936F937F93E9
:100280008F939F93AF93FF9397E280E1A0E0A395B4
:10029000681B790BE0F7AA95680F791FA063F091AE
:1002A000C000F5FFFCCFA093C60093E088EEA0E06D
:1002B000A395681B790BE0F7AA95680F791FA063D7
:1002C000F091C000F5FFFCCFA093C60090E084E65B
:1002D000A0E0A395681B790BE0F7AA95680F791F3A
:1002E000A063F091C000F5FFFCCFA093C60090E0A2
:1002F0008AE0A0E0A395681B790BE0F7AA95680F48
:10030000791FA063F091C000F5FFFCCFA093C60059
:10031000A62FA063F091C000F5FFFCCFA093C6000C
:100320006F917F91EEE20E940E004F935F9393E0F6
:1003300088EEA0E0A395481B590BE0F7AA95480F5B
:10034000591FA063F091C000F5FFFCCFA093C60039
:1003500090E084E6A0E0A395481B590BE0F7AA952E
:10036000480F591FA063F091C000F5FFFCCFA09388
:10037000C60090E08AE0A0E0A395481B590BE0F787
:10038000AA95480F591FA063F091C000F5FFFCCF5C
:10039000A093C600A42FA063F091C000F5FFFCCF8E
:1003A000A093C600FF91AF919F918F917F916F9124
:1003B0005F914F91089580FD04C0EBE20E940E0012
:1003C0000895EDE20E940E00089581FD04C0EBE265
:1003D0000E940E000895EDE20E940E0008952FC0C5
:1003E000E0E20E940E00D82F0E944800ECE70E9435
:1003F0000E00E72F0E941500E62F0E941500EEE286
:100400000E940E00E52F0E941500E42F0E941500A7
:10041000ECE70E940E00E32F0E941500E22F0E94DD
:100420001500EEE20E940E00E12F0E941500E02F61
:100430000E941500EBE30E940E0012C008950F9376
:100440001F932F933F934F935F936F937F938F935C
:100450009F93AF93BF93CF93DF93EF93FF93C0CF5F
:10046000FF91EF91DF91CF91BF91AF919F918F91CC
:100470007F916F915F914F913F912F911F910F91BC
:10048000DDCF4F935F936F937F93D7E2C0E1732FDC
:10049000622F44275527EE27C150D040CE17DE07E4
:1004A00031F08894260F371F4E1F5E1FF5CF752F32
:1004B000642F532F422F33272227040F151F261F87
:1004C000371F7F916F915F914F9108954F935F9385
:1004D0006F937F93D7E2C0E144275527E1E0F0E036
:1004E0000C171D072F073F0748F088944E0F5F1F1A
:1004F00088940C1B1D0B2F0B3F0BF2CF33272227A9
:10050000242F352F7F916F915F914F9108950F9315
:100510001F932F933F93042F152F262F372FD7E2AA
:10052000C0E1732F622F44275527EE27C150D040DA
:10053000CE17DE0731F08894260F371F4E1F5E1F3F
:10054000F5CF752F642F532F422F33272227040F07
:10055000151F261F371F402F512F622F732F3F91DA
:100560002F911F910F9108950F931F932F933F93F6
:10057000042F152F262F372FD7E2C0E14427552708
:10058000E1E0F0E00C171D072F073F0748F08894C3
:100590004E0F5F1F88940C1B1D0B2F0B3F0BF2CFD0
:1005A00033272227242F352F402F512F622F732FCF
:1005B0003F912F911F910F91089580E091EEA5EF4B
:1005C000B5E0FF27EE27DD27CC27F0E08894081759
:1005D00019072A073B074F075F076F077F0780F060
:1005E000E1E0F0E08894CE0FDF1FF0E08894081B74
:1005F000190B2A0B3B0B4F0B5F0B6F0B7F0BE5CFE0
:10060000CF93DF9397E280E1FF27EE27DD27CC270A
:10061000F0E08894081719072F073F074F075F0777
:100620006F077F0780F0E1E0F0E08894CE0FDF1FD6
:10063000F0E08894081B190B2F0B3F0B4F0B5F0B3F
:100640006F0B7F0BE5CF3F912F911D2F0C2F0E9439
:1006500041020895F0E0F017F107F207F30709F4FB
:1006600080E0089591E09823846086958150880FFA
:100670008270892B0895892B0895990F892B0895ED
:10068000040F151F0F931F93F7E2E0E10E171F07EA
:1006900048F00E1B1F0B0894261F371FEF91EF9198
:1006A000EE2708951F910F91260F371F0895041705
:1006B000150718F0041B150B18C0401B510BF7E26F
:1006C000E0E1E41BF50B0E2F1F2F00C026173707A4
:1006D00028F0261B370B215030400895621B730B06
:1006E000262F372F2150304008952617370718F04E
:1006F000261B370B0895621B730B262F372F089587
:100700000E9441020E948702802F912FA22FB32FB7
:10071000C42FD52FE62FF72F442755276627772795
:10072000BF93B0E0C150D040E040F040CB17DB07B2
:10073000EB07FB0771F0BF91FF93F0E08894080F7F
:10074000191F2A1F3B1F4F1F5F1F6F1F7F1FFF9126
:10075000E7CFBF910E94DD020E9466020E94B402B0
:1007600008950E9441020E94870299278827E1E0AC
:10077000F0E0041715072607370748F088948E0F16
:100780009F1F8894041B150B260B370BF2CF8F93FA
:100790009F9393E04F935F936F937F939F930E94F8
:1007A000660270E06AE050E040E00E9480030E9430
:1007B00041029F917F916F915F914F918827E1E076
:1007C000F0E0041715072607370738F08E0F8894D6
:1007D000041B150B260B370BF4CF8F939F1711F0CB
:1007E0009150D8CF00271127222733274427552798
:1007F000662777274F910F914F935F930E94660270
:1008000070E06AE050E040E00E9480030E944102F4
:100810005F914F91400F511F0F914F935F930E9433
:10082000660270E064E650E040E00E9480030E94AF
:1008300041025F914F91400F511F11270F914F932C
:100840005F930E94660273E068EE50E040E00E9411
:1008500080030E9441025F914F91040F151F0E9477
:10086000B4023F912F9108950E9441020E94870295
:1008700099278827E1E0F0E00417150726073707D6
:1008800048F088948E0F9F1F8894041B150B260B2D
:10089000370BF2CF00271127282F392F08950E94F8
:1008A00041020E948702E1E0F0E0041715072607E5
:1008B000370730F08894041B150B260B370BF5CF48
:1008C0000E9466020E94B4020895862F972F402F3F
:1008D000512F622F732F4F935F936F937F938F935B
:1008E0009F939F918F917F916F915F914F91FF2780
:1008F000815090408F179F0749F04F935F936F93FC
:100900007F938F939F930E948003EBCF089580FD88
:1009100003C081FD03C02FC081FD2DC00E94410294
:100920000E948702041715072607370760F00E9408
:1009300066020E94B40281708F930E9457038F91C8
:100940000E942A0308950E9466020E94B4028695BE
:100950008F930F931F932F933F93042F152F262FC1
:10096000372F7F916F915F914F910E9457038F9125
:100970000E942A03089581708F930E9440038F91F3
:100980000E942A03089580FD03C081FD03C00AC0B0
:1009900081FD08C081E08F930E9480038F910E94A7
:1009A0002A03089580E08F930E9480038F910E9414
:1009B0002A03089580FD03C081FD03C00AC081FDA4
:1009C00008C081E08F930E9434048F910E942A0313
:1009D000089580E08F930E9434048F910E942A032F
:1009E000089580FD03C081FD03C00AC081FD08C0D9
:1009F00081E08F930E94B1038F910E942A03089592
:100A000080E08F930E94B1038F910E942A03089582
:100A1000F0E04F175F076F077F0709F00AC030E06B
:100A200021E010E000E04427552766277727882734
:100A300041C080FD08C080E08F930E9465048F91C3
:100A40000E942A0308950F931F932F933F934F9370
:100A50005F936F937F93042F152F262F372F4427F3
:100A6000552762E077270E944F04F0E00F171F0719
:100A70002F073F0781F07F916F915F914F913F91D9
:100A80002F911F910F9181E08F930E9465048F91A8
:100A90000E942A0308957F916F915F914F913F913A
:100AA0002F911F910F9180E08F930E9465048F9189
:100AB0000E942A030895E32F0E941500E22F0E944E
:100AC0001500EEE20E940E00E12F0E941500E02FBB
:100AD0000E9415000895E72F0E941500E62F0E943E
:100AE0001500EEE20E940E00E52F0E941500E42F93
:100AF0000E941500089501E200933E000FEF00935D
:100B00003D000E9401001127222733274427552743
:100B1000662777278827EDE00E940E00882730E0BF
:100B200027E010E000E070E069E050E040E080E0A5
:100B30000E9432030E9487040E94DB010E949D00F4
:100B4000ECE70E940E00EDE00E940E000E94A90555
:100B5000E5CFDFE5FFEF000000000000000000002F
:100B60000000000000000000000000000000000085
:100B70000000000000000000000000000000000075
:100B80000000000000000000000000000000000065
:100B90000000000000000000000000000000000055
:100E20000000000000000000EFEFEA9509F0FDCFA0
:0E0E3000FA9509F0F9CFDA9509F08CCE089505
:00000001FF
